{
  "contractName": "DDNS",
  "abi": [
    {
      "constant": true,
      "inputs": [
        {
          "name": "index",
          "type": "uint256"
        }
      ],
      "name": "getOwnerDomain",
      "outputs": [
        {
          "name": "",
          "type": "bytes"
        }
      ],
      "payable": false,
      "stateMutability": "view",
      "type": "function"
    },
    {
      "constant": true,
      "inputs": [],
      "name": "getDomainCount",
      "outputs": [
        {
          "name": "",
          "type": "uint256"
        }
      ],
      "payable": false,
      "stateMutability": "view",
      "type": "function"
    },
    {
      "constant": false,
      "inputs": [
        {
          "name": "domain",
          "type": "bytes"
        },
        {
          "name": "newIp",
          "type": "bytes4"
        }
      ],
      "name": "edit",
      "outputs": [],
      "payable": false,
      "stateMutability": "nonpayable",
      "type": "function"
    },
    {
      "constant": false,
      "inputs": [],
      "name": "withdraw",
      "outputs": [],
      "payable": false,
      "stateMutability": "nonpayable",
      "type": "function"
    },
    {
      "constant": true,
      "inputs": [
        {
          "name": "domain",
          "type": "bytes"
        }
      ],
      "name": "getPrice",
      "outputs": [
        {
          "name": "",
          "type": "uint256"
        }
      ],
      "payable": false,
      "stateMutability": "pure",
      "type": "function"
    },
    {
      "constant": false,
      "inputs": [
        {
          "name": "domain",
          "type": "bytes"
        }
      ],
      "name": "extendExpirationDate",
      "outputs": [],
      "payable": true,
      "stateMutability": "payable",
      "type": "function"
    },
    {
      "constant": true,
      "inputs": [
        {
          "name": "domain",
          "type": "bytes"
        }
      ],
      "name": "getOwnerReceiptByDomain",
      "outputs": [
        {
          "name": "",
          "type": "uint256[]"
        },
        {
          "name": "",
          "type": "uint256[]"
        },
        {
          "name": "",
          "type": "uint256[]"
        }
      ],
      "payable": false,
      "stateMutability": "view",
      "type": "function"
    },
    {
      "constant": true,
      "inputs": [],
      "name": "owner",
      "outputs": [
        {
          "name": "",
          "type": "address"
        }
      ],
      "payable": false,
      "stateMutability": "view",
      "type": "function"
    },
    {
      "constant": false,
      "inputs": [
        {
          "name": "domain",
          "type": "bytes"
        },
        {
          "name": "newOwner",
          "type": "address"
        }
      ],
      "name": "transferDomain",
      "outputs": [],
      "payable": false,
      "stateMutability": "nonpayable",
      "type": "function"
    },
    {
      "constant": true,
      "inputs": [
        {
          "name": "domain",
          "type": "bytes"
        }
      ],
      "name": "getIP",
      "outputs": [
        {
          "name": "",
          "type": "bytes4"
        }
      ],
      "payable": false,
      "stateMutability": "view",
      "type": "function"
    },
    {
      "constant": true,
      "inputs": [
        {
          "name": "domain",
          "type": "bytes"
        }
      ],
      "name": "isDomainRegister",
      "outputs": [
        {
          "name": "",
          "type": "bool"
        }
      ],
      "payable": false,
      "stateMutability": "view",
      "type": "function"
    },
    {
      "constant": false,
      "inputs": [
        {
          "name": "domain",
          "type": "bytes"
        },
        {
          "name": "ip",
          "type": "bytes4"
        }
      ],
      "name": "register",
      "outputs": [],
      "payable": true,
      "stateMutability": "payable",
      "type": "function"
    },
    {
      "constant": true,
      "inputs": [
        {
          "name": "domain",
          "type": "bytes"
        }
      ],
      "name": "getDomainOwner",
      "outputs": [
        {
          "name": "",
          "type": "address"
        }
      ],
      "payable": false,
      "stateMutability": "view",
      "type": "function"
    },
    {
      "anonymous": false,
      "inputs": [
        {
          "indexed": true,
          "name": "addr",
          "type": "address"
        },
        {
          "indexed": false,
          "name": "_domain",
          "type": "bytes32"
        },
        {
          "indexed": true,
          "name": "createdOn",
          "type": "uint256"
        }
      ],
      "name": "LogRegister",
      "type": "event"
    },
    {
      "anonymous": false,
      "inputs": [
        {
          "indexed": true,
          "name": "newOwner",
          "type": "address"
        },
        {
          "indexed": true,
          "name": "oldOwner",
          "type": "address"
        },
        {
          "indexed": true,
          "name": "_domain",
          "type": "bytes32"
        }
      ],
      "name": "LogTransferDomain",
      "type": "event"
    },
    {
      "anonymous": false,
      "inputs": [
        {
          "indexed": false,
          "name": "owner",
          "type": "address"
        },
        {
          "indexed": true,
          "name": "_domain",
          "type": "bytes32"
        },
        {
          "indexed": true,
          "name": "expirationDate",
          "type": "uint256"
        }
      ],
      "name": "LogUpdateExipationDate",
      "type": "event"
    }
  ],
  "bytecode": "0x6060604052336000806101000a81548173ffffffffffffffffffffffffffffffffffffffff021916908373ffffffffffffffffffffffffffffffffffffffff16021790555061256e806100536000396000f3006060604052600436106100c5576000357c0100000000000000000000000000000000000000000000000000000000900463ffffffff1680630dc47714146100ca57806313e91f08146101665780631673f0081461018f5780633ccfd60b146102145780636b4dd158146102295780636bdc53ce1461029a5780636c007ace146102ec5780638da5cb5b1461042e5780639df35ba714610483578063b21659f2146104ff578063e79f80f8146105ae578063efacd29414610623578063f2c79a591461069d575b600080fd5b34156100d557600080fd5b6100eb600480803590602001909190505061073a565b6040518080602001828103825283818151815260200191508051906020019080838360005b8381101561012b578082015181840152602081019050610110565b50505050905090810190601f1680156101585780820380516001836020036101000a031916815260200191505b509250505060405180910390f35b341561017157600080fd5b61017961083c565b6040518082815260200191505060405180910390f35b341561019a57600080fd5b610212600480803590602001908201803590602001908080601f016020809104026020016040519081016040528093929190818152602001838380828437820191505050505050919080357bffffffffffffffffffffffffffffffffffffffffffffffffffffffff1916906020019091905050610886565b005b341561021f57600080fd5b610227610b67565b005b341561023457600080fd5b610284600480803590602001908201803590602001908080601f01602080910402602001604051908101604052809392919081815260200183838082843782019150505050505091905050610c62565b6040518082815260200191505060405180910390f35b6102ea600480803590602001908201803590602001908080601f01602080910402602001604051908101604052809392919081815260200183838082843782019150505050505091905050610ce6565b005b34156102f757600080fd5b610347600480803590602001908201803590602001908080601f01602080910402602001604051908101604052809392919081815260200183838082843782019150505050505091905050611208565b60405180806020018060200180602001848103845287818151815260200191508051906020019060200280838360005b83811015610392578082015181840152602081019050610377565b50505050905001848103835286818151815260200191508051906020019060200280838360005b838110156103d45780820151818401526020810190506103b9565b50505050905001848103825285818151815260200191508051906020019060200280838360005b838110156104165780820151818401526020810190506103fb565b50505050905001965050505050505060405180910390f35b341561043957600080fd5b610441611658565b604051808273ffffffffffffffffffffffffffffffffffffffff1673ffffffffffffffffffffffffffffffffffffffff16815260200191505060405180910390f35b341561048e57600080fd5b6104fd600480803590602001908201803590602001908080601f0160208091040260200160405190810160405280939291908181526020018383808284378201915050505050509190803573ffffffffffffffffffffffffffffffffffffffff1690602001909190505061167d565b005b341561050a57600080fd5b61055a600480803590602001908201803590602001908080601f01602080910402602001604051908101604052809392919081815260200183838082843782019150505050505091905050611bbf565b60405180827bffffffffffffffffffffffffffffffffffffffffffffffffffffffff19167bffffffffffffffffffffffffffffffffffffffffffffffffffffffff1916815260200191505060405180910390f35b34156105b957600080fd5b610609600480803590602001908201803590602001908080601f01602080910402602001604051908101604052809392919081815260200183838082843782019150505050505091905050611d07565b604051808215151515815260200191505060405180910390f35b61069b600480803590602001908201803590602001908080601f016020809104026020016040519081016040528093929190818152602001838380828437820191505050505050919080357bffffffffffffffffffffffffffffffffffffffffffffffffffffffff1916906020019091905050611d9b565b005b34156106a857600080fd5b6106f8600480803590602001908201803590602001908080601f01602080910402602001604051908101604052809392919081815260200183838082843782019150505050505091905050612230565b604051808273ffffffffffffffffffffffffffffffffffffffff1673ffffffffffffffffffffffffffffffffffffffff16815260200191505060405180910390f35b610742612369565b600160003373ffffffffffffffffffffffffffffffffffffffff1673ffffffffffffffffffffffffffffffffffffffff1681526020019081526020016000208281548110151561078e57fe5b90600052602060002090016000018054600181600116156101000203166002900480601f0160208091040260200160405190810160405280929190818152602001828054600181600116156101000203166002900480156108305780601f1061080557610100808354040283529160200191610830565b820191906000526020600020905b81548152906001019060200180831161081357829003601f168201915b50505050509050919050565b6000600160003373ffffffffffffffffffffffffffffffffffffffff1673ffffffffffffffffffffffffffffffffffffffff16815260200190815260200160002080549050905090565b8160026000826040518082805190602001908083835b6020831015156108c1578051825260208201915060208101905060208303925061089c565b6001836020036101000a03801982511681845116808217855250505050505090500191505060405180910390206000191660001916815260200190815260200160002060009054906101000a900460ff16151561091d57600080fd5b826000816040518082805190602001908083835b6020831015156109565780518252602082019150602081019050602083039250610931565b6001836020036101000a03801982511681845116808217855250505050505090500191505060405180910390209050600560008260001916600019168152602001908152602001600020544210156109ba57600115156109b557600080fd5b6109d1565b6109c3816122d7565b600015156109d057600080fd5b5b843373ffffffffffffffffffffffffffffffffffffffff1660036000836040518082805190602001908083835b602083101515610a2357805182526020820191506020810190506020830392506109fe565b6001836020036101000a03801982511681845116808217855250505050505090500191505060405180910390206000191660001916815260200190815260200160002060009054906101000a900473ffffffffffffffffffffffffffffffffffffffff1673ffffffffffffffffffffffffffffffffffffffff16141515610aa957600080fd5b8460046000886040518082805190602001908083835b602083101515610ae45780518252602082019150602081019050602083039250610abf565b6001836020036101000a03801982511681845116808217855250505050505090500191505060405180910390206000191660001916815260200190815260200160002060006101000a81548163ffffffff02191690837c010000000000000000000000000000000000000000000000000000000090040217905550505050505050565b6000809054906101000a900473ffffffffffffffffffffffffffffffffffffffff1673ffffffffffffffffffffffffffffffffffffffff163373ffffffffffffffffffffffffffffffffffffffff16141515610bc257600080fd5b60003073ffffffffffffffffffffffffffffffffffffffff1631111515610be857600080fd5b6000809054906101000a900473ffffffffffffffffffffffffffffffffffffffff1673ffffffffffffffffffffffffffffffffffffffff166108fc3073ffffffffffffffffffffffffffffffffffffffff16319081150290604051600060405180830381858888f193505050501515610c6057600080fd5b565b6000816005815110158015610c7957506032815111155b1515610c8457600080fd5b6005835110158015610c975750600a8351105b15610cac57670de0b6b3a76400009150610ce0565b600a835110158015610cbf5750600f8351105b15610cd457670b1a2bc2ec5000009150610ce0565b6706f05b59d3b2000091505b50919050565b600080826000816040518082805190602001908083835b602083101515610d225780518252602082019150602081019050602083039250610cfd565b6001836020036101000a0380198251168184511680821785525050505050509050019150506040518091039020905060056000826000191660001916815260200190815260200160002054421015610d865760011515610d8157600080fd5b610d9d565b610d8f816122d7565b60001515610d9c57600080fd5b5b843373ffffffffffffffffffffffffffffffffffffffff1660036000836040518082805190602001908083835b602083101515610def5780518252602082019150602081019050602083039250610dca565b6001836020036101000a03801982511681845116808217855250505050505090500191505060405180910390206000191660001916815260200190815260200160002060009054906101000a900473ffffffffffffffffffffffffffffffffffffffff1673ffffffffffffffffffffffffffffffffffffffff16141515610e7557600080fd5b85610e7f81610c62565b34141515610e8c57600080fd5b866040518082805190602001908083835b602083101515610ec25780518252602082019150602081019050602083039250610e9d565b6001836020036101000a03801982511681845116808217855250505050505090500191505060405180910390209550600660003373ffffffffffffffffffffffffffffffffffffffff1673ffffffffffffffffffffffffffffffffffffffff16815260200190815260200160002060008760001916600019168152602001908152602001600020805490509450600660003373ffffffffffffffffffffffffffffffffffffffff1673ffffffffffffffffffffffffffffffffffffffff168152602001908152602001600020600087600019166000191681526020019081526020016000208054806001018281610fb9919061237d565b916000526020600020906003020160006060604051908101604052803481526020014281526020016301e13380600660003373ffffffffffffffffffffffffffffffffffffffff1673ffffffffffffffffffffffffffffffffffffffff16815260200190815260200160002060008d6000191660001916815260200190815260200160002060018c0381548110151561104e57fe5b906000526020600020906003020160020154018152509091909150600082015181600001556020820151816001015560408201518160020155505050600660003373ffffffffffffffffffffffffffffffffffffffff1673ffffffffffffffffffffffffffffffffffffffff16815260200190815260200160002060008760001916600019168152602001908152602001600020858154811015156110ef57fe5b90600052602060002090600302016002015460056000886000191660001916815260200190815260200160002081905550600660003373ffffffffffffffffffffffffffffffffffffffff1673ffffffffffffffffffffffffffffffffffffffff168152602001908152602001600020600087600019166000191681526020019081526020016000208581548110151561118557fe5b90600052602060002090600302016002015486600019167f1120805c253568e0b57de50d1dcad3a3ca4de588b9c4b2013e84173f76c8b1dd33604051808273ffffffffffffffffffffffffffffffffffffffff1673ffffffffffffffffffffffffffffffffffffffff16815260200191505060405180910390a350505050505050565b6112106123af565b6112186123af565b6112206123af565b600061122a6123af565b6112326123af565b61123a6123af565b6000886040518082805190602001908083835b602083101515611272578051825260208201915060208101905060208303925061124d565b6001836020036101000a03801982511681845116808217855250505050505090500191505060405180910390209450600660003373ffffffffffffffffffffffffffffffffffffffff1673ffffffffffffffffffffffffffffffffffffffff168152602001908152602001600020600086600019166000191681526020019081526020016000208054905060405180591061130a5750595b90808252806020026020018201604052509350600660003373ffffffffffffffffffffffffffffffffffffffff1673ffffffffffffffffffffffffffffffffffffffff16815260200190815260200160002060008660001916600019168152602001908152602001600020805490506040518059106113865750595b90808252806020026020018201604052509250600660003373ffffffffffffffffffffffffffffffffffffffff1673ffffffffffffffffffffffffffffffffffffffff16815260200190815260200160002060008660001916600019168152602001908152602001600020805490506040518059106114025750595b90808252806020026020018201604052509150600090505b600660003373ffffffffffffffffffffffffffffffffffffffff1673ffffffffffffffffffffffffffffffffffffffff168152602001908152602001600020600086600019166000191681526020019081526020016000208054905081101561164357600660003373ffffffffffffffffffffffffffffffffffffffff1673ffffffffffffffffffffffffffffffffffffffff16815260200190815260200160002060008660001916600019168152602001908152602001600020818154811015156114e257fe5b906000526020600020906003020160000154848281518110151561150257fe5b9060200190602002018181525050600660003373ffffffffffffffffffffffffffffffffffffffff1673ffffffffffffffffffffffffffffffffffffffff168152602001908152602001600020600086600019166000191681526020019081526020016000208181548110151561157557fe5b906000526020600020906003020160010154838281518110151561159557fe5b9060200190602002018181525050600660003373ffffffffffffffffffffffffffffffffffffffff1673ffffffffffffffffffffffffffffffffffffffff168152602001908152602001600020600086600019166000191681526020019081526020016000208181548110151561160857fe5b906000526020600020906003020160020154828281518110151561162857fe5b9060200190602002018181525050808060010191505061141a565b83838397509750975050505050509193909250565b6000809054906101000a900473ffffffffffffffffffffffffffffffffffffffff1681565b600080836000816040518082805190602001908083835b6020831015156116b95780518252602082019150602081019050602083039250611694565b6001836020036101000a038019825116818451168082178552505050505050905001915050604051809103902090506005600082600019166000191681526020019081526020016000205442101561171d576001151561171857600080fd5b611734565b611726816122d7565b6000151561173357600080fd5b5b853373ffffffffffffffffffffffffffffffffffffffff1660036000836040518082805190602001908083835b6020831015156117865780518252602082019150602081019050602083039250611761565b6001836020036101000a03801982511681845116808217855250505050505090500191505060405180910390206000191660001916815260200190815260200160002060009054906101000a900473ffffffffffffffffffffffffffffffffffffffff1673ffffffffffffffffffffffffffffffffffffffff1614151561180c57600080fd5b866040518082805190602001908083835b602083101515611842578051825260208201915060208101905060208303925061181d565b6001836020036101000a038019825116818451168082178552505050505050905001915050604051809103902094508560036000876000191660001916815260200190815260200160002060006101000a81548173ffffffffffffffffffffffffffffffffffffffff021916908373ffffffffffffffffffffffffffffffffffffffff1602179055506001600660008873ffffffffffffffffffffffffffffffffffffffff1673ffffffffffffffffffffffffffffffffffffffff168152602001908152602001600020600087600019166000191681526020019081526020016000208054905010156119c357600160008773ffffffffffffffffffffffffffffffffffffffff1673ffffffffffffffffffffffffffffffffffffffff168152602001908152602001600020805480600101828161198091906123c3565b916000526020600020900160006020604051908101604052808b815250909190915060008201518160000190805190602001906119be9291906123ef565b505050505b600660003373ffffffffffffffffffffffffffffffffffffffff1673ffffffffffffffffffffffffffffffffffffffff16815260200190815260200160002060008660001916600019168152602001908152602001600020805490509350600660008773ffffffffffffffffffffffffffffffffffffffff1673ffffffffffffffffffffffffffffffffffffffff168152602001908152602001600020600086600019166000191681526020019081526020016000208054806001018281611a8b919061237d565b9160005260206000209060030201600060606040519081016040528060008152602001428152602001600660003373ffffffffffffffffffffffffffffffffffffffff1673ffffffffffffffffffffffffffffffffffffffff16815260200190815260200160002060008b6000191660001916815260200190815260200160002060018a03815481101515611b1c57fe5b906000526020600020906003020160020154815250909190915060008201518160000155602082015181600101556040820151816002015550505084600019163373ffffffffffffffffffffffffffffffffffffffff168773ffffffffffffffffffffffffffffffffffffffff167fee1aa85cb84539744239d4d052fbc04c183b143f273ef3be77b5b887422bbab860405160405180910390a450505050505050565b60008160026000826040518082805190602001908083835b602083101515611bfc5780518252602082019150602081019050602083039250611bd7565b6001836020036101000a03801982511681845116808217855250505050505090500191505060405180910390206000191660001916815260200190815260200160002060009054906101000a900460ff161515611c5857600080fd5b60046000846040518082805190602001908083835b602083101515611c925780518252602082019150602081019050602083039250611c6d565b6001836020036101000a03801982511681845116808217855250505050505090500191505060405180910390206000191660001916815260200190815260200160002060009054906101000a90047c010000000000000000000000000000000000000000000000000000000002915050919050565b600060026000836040518082805190602001908083835b602083101515611d435780518252602082019150602081019050602083039250611d1e565b6001836020036101000a03801982511681845116808217855250505050505090500191505060405180910390206000191660001916815260200190815260200160002060009054906101000a900460ff169050919050565b6000826000816040518082805190602001908083835b602083101515611dd65780518252602082019150602081019050602083039250611db1565b6001836020036101000a0380198251168184511680821785525050505050509050019150506040518091039020905060026000826000191660001916815260200190815260200160002060009054906101000a900460ff161515611e465760011515611e4157600080fd5b611e93565b60056000826000191660001916815260200190815260200160002054421015611e7b5760001515611e7657600080fd5b611e92565b611e84816122d7565b60011515611e9157600080fd5b5b5b84611e9d81610c62565b34141515611eaa57600080fd5b856040518082805190602001908083835b602083101515611ee05780518252602082019150602081019050602083039250611ebb565b6001836020036101000a03801982511681845116808217855250505050505090500191505060405180910390209350600160026000866000191660001916815260200190815260200160002060006101000a81548160ff0219169083151502179055503360036000866000191660001916815260200190815260200160002060006101000a81548173ffffffffffffffffffffffffffffffffffffffff021916908373ffffffffffffffffffffffffffffffffffffffff160217905550600660003373ffffffffffffffffffffffffffffffffffffffff1673ffffffffffffffffffffffffffffffffffffffff168152602001908152602001600020600085600019166000191681526020019081526020016000208054806001018281612007919061237d565b916000526020600020906003020160006060604051908101604052803481526020014281526020016301e13380420181525090919091506000820151816000015560208201518160010155604082015181600201555050508460046000866000191660001916815260200190815260200160002060006101000a81548163ffffffff02191690837c0100000000000000000000000000000000000000000000000000000000900402179055506301e133804201600560008660001916600019168152602001908152602001600020819055506001600660003373ffffffffffffffffffffffffffffffffffffffff1673ffffffffffffffffffffffffffffffffffffffff168152602001908152602001600020600086600019166000191681526020019081526020016000208054905014156121d157600160003373ffffffffffffffffffffffffffffffffffffffff1673ffffffffffffffffffffffffffffffffffffffff168152602001908152602001600020805480600101828161218e91906123c3565b916000526020600020900160006020604051908101604052808a815250909190915060008201518160000190805190602001906121cc9291906123ef565b505050505b423373ffffffffffffffffffffffffffffffffffffffff167fc81079f356f6d7929603ef7d56baa5f69ea6bb5a4f7c42863af184cdfcebb92d8660405180826000191660001916815260200191505060405180910390a3505050505050565b600060036000836040518082805190602001908083835b60208310151561226c5780518252602082019150602081019050602083039250612247565b6001836020036101000a03801982511681845116808217855250505050505090500191505060405180910390206000191660001916815260200190815260200160002060009054906101000a900473ffffffffffffffffffffffffffffffffffffffff169050919050565b600060026000836000191660001916815260200190815260200160002060006101000a81548160ff021916908315150217905550600060036000836000191660001916815260200190815260200160002060006101000a81548173ffffffffffffffffffffffffffffffffffffffff021916908373ffffffffffffffffffffffffffffffffffffffff16021790555050565b602060405190810160405280600081525090565b8154818355818115116123aa576003028160030283600052602060002091820191016123a9919061246f565b5b505050565b602060405190810160405280600081525090565b8154818355818115116123ea578183600052602060002091820191016123e991906124a6565b5b505050565b828054600181600116156101000203166002900490600052602060002090601f016020900481019282601f1061243057805160ff191683800117855561245e565b8280016001018555821561245e579182015b8281111561245d578251825591602001919060010190612442565b5b50905061246b91906124d5565b5090565b6124a391905b8082111561249f576000808201600090556001820160009055600282016000905550600301612475565b5090565b90565b6124d291905b808211156124ce57600080820160006124c591906124fa565b506001016124ac565b5090565b90565b6124f791905b808211156124f35760008160009055506001016124db565b5090565b90565b50805460018160011615610100020316600290046000825580601f10612520575061253f565b601f01602090049060005260206000209081019061253e91906124d5565b5b505600a165627a7a72305820e8085fdd027e73e13c18d36c388510ef7b899d44542e7e712169ca9a3b4a54b00029",
  "source": "pragma solidity ^0.4.19;\r\n\r\ncontract Ownable {\r\n    \r\n    address public owner;\r\n    \r\n    function Ownable() public {\r\n        owner = msg.sender;\r\n    }\r\n\r\n    modifier isOwner() {\r\n        require(msg.sender == owner);\r\n        _;\r\n    }\r\n}\r\n\r\ncontract DDNS is Ownable {\r\n    \r\n    struct Receipt{\r\n        //bytes domainName;\r\n        uint amountPaidWei; \r\n        uint timestamp; // created on \r\n        uint expires;\r\n    }\r\n    \r\n    struct Domain {\r\n        bytes domainName;\r\n    }\r\n    \r\n    // useless mapping ?!?!\r\n    //This will create an automatic getter with 2 arguments: address and index of receipt\r\n    //mapping(address => Receipt[]) public receipts; \r\n    \r\n    mapping(address => Domain[]) private ownerAllDomains;\r\n    \r\n    // quick check is domain already registered\r\n    mapping(bytes32 => bool) private registeredDomains;\r\n    \r\n    // if we need to known which domain is owned by\r\n    mapping(bytes32 => address) private domainOwners;\r\n    \r\n    // get ip of domain\r\n    mapping(bytes32 => bytes4) private domainIp;\r\n    \r\n    // get domain expiration update\r\n    mapping(bytes32 => uint) private domainExpirationDate;\r\n    \r\n    // all info about owner  and its domains\r\n    mapping(address => mapping(bytes32 => Receipt[])) private ownerReceipts;\r\n    \r\n    event LogRegister(address indexed addr, bytes32 _domain, uint indexed createdOn);\r\n    event LogTransferDomain(address indexed newOwner, address indexed oldOwner, bytes32 indexed _domain);\r\n    event LogUpdateExipationDate(address owner, bytes32 indexed _domain, uint indexed expirationDate);\r\n    \r\n    modifier domainNameLenght(bytes domain){\r\n        require(domain.length >= 5 && domain.length <= 50);\r\n        _;\r\n    }\r\n    \r\n    modifier isDomainFree(bytes domain){\r\n        bytes32 domainHash = keccak256(domain);\r\n        \r\n        if(!registeredDomains[domainHash]){\r\n            require(true);\r\n        } else {\r\n            \r\n            // check is domain active\r\n            if(now < domainExpirationDate[domainHash]){\r\n                require(false);\r\n            } else {\r\n                \r\n                clearDomain(domainHash);\r\n                require(true);\r\n            }\r\n        }\r\n        \r\n        _;\r\n    }\r\n    \r\n    modifier isDomainExist(bytes domain){\r\n        require(registeredDomains[keccak256(domain)]);\r\n        _;\r\n    }\r\n    \r\n    modifier isPriceMatch(bytes domain) {\r\n        require(msg.value == getPrice(domain));\r\n        _;\r\n    }\r\n    \r\n    modifier canEdit(bytes domain) {\r\n        require(domainOwners[keccak256(domain)] == msg.sender);\r\n        _;\r\n    }\r\n    \r\n    modifier isActive(bytes domain) {\r\n        \r\n        bytes32 domainHash = keccak256(domain);\r\n        \r\n        if(now < domainExpirationDate[domainHash]){\r\n            require(true);\r\n        } else {\r\n            \r\n            clearDomain(domainHash);\r\n            require(false);\r\n        }\r\n        \r\n        _;\r\n    }\r\n    \r\n    function clearDomain(bytes32 domainHash) private {\r\n        \r\n        registeredDomains[domainHash] = false;\r\n            \r\n        // depends on business logic\r\n        domainOwners[domainHash] = address(0);\r\n    }\r\n    \r\n    function getPrice(bytes domain) public pure domainNameLenght(domain) returns (uint) {\r\n        if(domain.length >= 5 && domain.length < 10){\r\n            return 1 ether;\r\n        } else if(domain.length >= 10 && domain.length < 15){\r\n            return 0.8 ether;\r\n        } else {\r\n            return 0.5 ether;\r\n        }\r\n    }\r\n    \r\n    //the domain is bytes, because string is UTF-8 encoded and we cannot get its length\r\n    //the IP is bytes4 because it is more efficient in storing the sequence\r\n    function register(bytes domain, bytes4 ip) public payable isDomainFree(domain) isPriceMatch(domain) {\r\n        \r\n        bytes32 domainHash = keccak256(domain);\r\n        \r\n        registeredDomains[domainHash] = true;\r\n        domainOwners[domainHash] = msg.sender;\r\n        //ownerReceipts[msg.sender][domainHash].push(Receipt({domainName : domain, amountPaidWei : msg.value, timestamp: now, expires: now + 1 years}));\r\n        ownerReceipts[msg.sender][domainHash].push(Receipt({ amountPaidWei : msg.value, timestamp: now, expires: now + 1 years}));\r\n        domainIp[domainHash] = ip;\r\n        domainExpirationDate[domainHash] = now + 1 years;\r\n        \r\n        if(ownerReceipts[msg.sender][domainHash].length == 1) {\r\n            ownerAllDomains[msg.sender].push(Domain({domainName : domain}));\r\n        }\r\n        \r\n        //emit LogRegister(msg.sender, domainHash, now);\r\n        LogRegister(msg.sender, domainHash, now);\r\n    }\r\n    \r\n    \r\n    \r\n    function edit(bytes domain, bytes4 newIp) public isDomainExist(domain) isActive(domain) canEdit(domain) {\r\n        domainIp[keccak256(domain)] = newIp;\r\n    }\r\n    \r\n    function transferDomain(bytes domain, address newOwner) public isActive(domain) canEdit(domain) {\r\n        \r\n        bytes32 domainHash = keccak256(domain);\r\n        \r\n        domainOwners[domainHash] = newOwner;\r\n        \r\n        if(ownerReceipts[newOwner][domainHash].length < 1) {\r\n            ownerAllDomains[newOwner].push(Domain({domainName : domain}));\r\n        }\r\n        \r\n        // get index of last receipt\r\n        uint lastReceipt = ownerReceipts[msg.sender][domainHash].length;\r\n        \r\n        // assign domain to new owner and create receipt to describe transfer event paid amound should be 0 \r\n        //ownerReceipts[newOwner][domainHash].push(Receipt({domainName : domain, amountPaidWei : 0, timestamp: now, expires: ownerReceipts[msg.sender][domainHash][lastReceipt - 1].expires }));\r\n        ownerReceipts[newOwner][domainHash].push(Receipt({ amountPaidWei : 0, timestamp: now, expires: ownerReceipts[msg.sender][domainHash][lastReceipt - 1].expires }));\r\n        \r\n        //emit LogTransferDomain(newOwner, msg.sender, domainHash);\r\n        LogTransferDomain(newOwner, msg.sender, domainHash);\r\n    }\r\n    \r\n    function extendExpirationDate(bytes domain) public payable isActive(domain) canEdit(domain) isPriceMatch(domain) {\r\n        \r\n        bytes32 domainHash = keccak256(domain);\r\n        uint lastReceiptIndex = ownerReceipts[msg.sender][domainHash].length;\r\n        //ownerReceipts[msg.sender][domainHash].push(Receipt({domainName : domain, amountPaidWei : msg.value, timestamp: now, expires: ownerReceipts[msg.sender][domainHash][lastReceiptIndex - 1].expires + 1 years }));\r\n        ownerReceipts[msg.sender][domainHash].push(Receipt({ amountPaidWei : msg.value, timestamp: now, expires: ownerReceipts[msg.sender][domainHash][lastReceiptIndex - 1].expires + 1 years }));\r\n        \r\n        domainExpirationDate[domainHash] = ownerReceipts[msg.sender][domainHash][lastReceiptIndex].expires;\r\n        \r\n        //emit LogUpdateExipationDate(msg.sender, domainHash, ownerReceipts[msg.sender][domainHash][lastReceiptIndex].expires);\r\n        LogUpdateExipationDate(msg.sender, domainHash, ownerReceipts[msg.sender][domainHash][lastReceiptIndex].expires);\r\n    }\r\n    \r\n    function getOwnerReceiptByDomain(bytes domain) public view returns (uint[], uint[], uint[]) {\r\n        //uint amountPaidWei; \r\n        //uint timestamp; // created on \r\n        //uint expires;\r\n        \r\n        bytes32 domainHash = keccak256(domain);\r\n        \r\n        uint[] memory price = new uint[](ownerReceipts[msg.sender][domainHash].length);\r\n        uint[] memory createdOn = new uint[](ownerReceipts[msg.sender][domainHash].length);\r\n        uint[] memory expires = new uint[](ownerReceipts[msg.sender][domainHash].length);\r\n        \r\n        // ownerAllDomains[msg.sender].length - is number of receipts per domain\r\n        \r\n        for(uint i = 0; i < ownerReceipts[msg.sender][domainHash].length; i++){\r\n            price[i] = ownerReceipts[msg.sender][domainHash][i].amountPaidWei;\r\n            createdOn[i] = ownerReceipts[msg.sender][domainHash][i].timestamp;\r\n            expires[i] = ownerReceipts[msg.sender][domainHash][i].expires;\r\n        }\r\n        \r\n        return (price, createdOn, expires);\r\n    }\r\n    \r\n    function getIP(bytes domain) public view isDomainExist(domain) returns (bytes4) { // isActive(domain)\r\n        \r\n        return domainIp[keccak256(domain)];\r\n    }\r\n    \r\n    function getDomainOwner(bytes domain) public view returns (address) {\r\n        return domainOwners[keccak256(domain)];\r\n    }\r\n    \r\n    function getDomainCount() public view returns (uint) {\r\n        return ownerAllDomains[msg.sender].length;\r\n    }\r\n    \r\n    // get domain name by index \r\n    function getOwnerDomain(uint index) public view returns (bytes) {\r\n        return ownerAllDomains[msg.sender][index].domainName;\r\n    }\r\n    \r\n    function isDomainRegister(bytes domain) public view returns (bool) {\r\n        return registeredDomains[keccak256(domain)];\r\n    }\r\n    \r\n    function withdraw() public isOwner {\r\n        require(address(this).balance > 0);\r\n        owner.transfer(address(this).balance);\r\n    }\r\n}",
  "sourcePath": "C:\\Projects\\DDNS\\Contract\\contracts\\ddns.sol",
  "compiler": {
    "name": "solc",
    "version": "0.4.19+commit.c4cbbb05.Emscripten.clang"
  },
  "schemaVersion": "1.0.1",
  "updatedAt": "2018-03-29T05:13:23.965Z"
}