{
  "contractName": "Ownable",
  "abi": [
    {
      "constant": true,
      "inputs": [],
      "name": "owner",
      "outputs": [
        {
          "name": "",
          "type": "address"
        }
      ],
      "payable": false,
      "stateMutability": "view",
      "type": "function"
    },
    {
      "inputs": [],
      "payable": false,
      "stateMutability": "nonpayable",
      "type": "constructor"
    }
  ],
  "bytecode": "0x6060604052341561000f57600080fd5b336000806101000a81548173ffffffffffffffffffffffffffffffffffffffff021916908373ffffffffffffffffffffffffffffffffffffffff16021790555060e78061005d6000396000f300606060405260043610603f576000357c0100000000000000000000000000000000000000000000000000000000900463ffffffff1680638da5cb5b146044575b600080fd5b3415604e57600080fd5b60546096565b604051808273ffffffffffffffffffffffffffffffffffffffff1673ffffffffffffffffffffffffffffffffffffffff16815260200191505060405180910390f35b6000809054906101000a900473ffffffffffffffffffffffffffffffffffffffff16815600a165627a7a7230582028279d033ac35d50886c7a075af999d0c675b262a346c9a3e047a6d897555bb70029",
  "source": "pragma solidity ^0.4.19;\r\n\r\ncontract Ownable {\r\n    \r\n    address public owner;\r\n    \r\n    function Ownable() public {\r\n        owner = msg.sender;\r\n    }\r\n\r\n    modifier isOwner() {\r\n        require(msg.sender == owner);\r\n        _;\r\n    }\r\n}\r\n\r\ncontract DDNS is Ownable {\r\n    \r\n    struct Receipt{\r\n        //bytes domainName;\r\n        uint amountPaidWei; \r\n        uint timestamp; // created on \r\n        uint expires;\r\n    }\r\n    \r\n    struct Domain {\r\n        bytes domainName;\r\n    }\r\n    \r\n    // useless mapping ?!?!\r\n    //This will create an automatic getter with 2 arguments: address and index of receipt\r\n    //mapping(address => Receipt[]) public receipts; \r\n    \r\n    mapping(address => Domain[]) private ownerAllDomains;\r\n    \r\n    // quick check is domain already registered\r\n    mapping(bytes32 => bool) private registeredDomains;\r\n    \r\n    // if we need to known which domain is owned by\r\n    mapping(bytes32 => address) private domainOwners;\r\n    \r\n    // get ip of domain\r\n    mapping(bytes32 => bytes4) private domainIp;\r\n    \r\n    // get domain expiration update\r\n    mapping(bytes32 => uint) private domainExpirationDate;\r\n    \r\n    // all info about owner  and its domains\r\n    mapping(address => mapping(bytes32 => Receipt[])) private ownerReceipts;\r\n    \r\n    event LogRegister(address indexed addr, bytes32 _domain, uint indexed createdOn);\r\n    event LogTransferDomain(address indexed newOwner, address indexed oldOwner, bytes32 indexed _domain);\r\n    event LogUpdateExipationDate(address owner, bytes32 indexed _domain, uint indexed expirationDate);\r\n    \r\n    modifier domainNameLenght(bytes domain){\r\n        require(domain.length >= 5 && domain.length <= 50);\r\n        _;\r\n    }\r\n    \r\n    modifier isDomainFree(bytes domain){\r\n        bytes32 domainHash = keccak256(domain);\r\n        \r\n        if(!registeredDomains[domainHash]){\r\n            require(true);\r\n        } else {\r\n            \r\n            // check is domain active\r\n            if(now < domainExpirationDate[domainHash]){\r\n                require(false);\r\n            } else {\r\n                \r\n                clearDomain(domainHash);\r\n                require(true);\r\n            }\r\n        }\r\n        \r\n        _;\r\n    }\r\n    \r\n    modifier isDomainExist(bytes domain){\r\n        require(registeredDomains[keccak256(domain)]);\r\n        _;\r\n    }\r\n    \r\n    modifier isPriceMatch(bytes domain) {\r\n        require(msg.value == getPrice(domain));\r\n        _;\r\n    }\r\n    \r\n    modifier canEdit(bytes domain) {\r\n        require(domainOwners[keccak256(domain)] == msg.sender);\r\n        _;\r\n    }\r\n    \r\n    modifier isActive(bytes domain) {\r\n        \r\n        bytes32 domainHash = keccak256(domain);\r\n        \r\n        if(now < domainExpirationDate[domainHash]){\r\n            require(true);\r\n        } else {\r\n            \r\n            clearDomain(domainHash);\r\n            require(false);\r\n        }\r\n        \r\n        _;\r\n    }\r\n    \r\n    function clearDomain(bytes32 domainHash) private {\r\n        \r\n        registeredDomains[domainHash] = false;\r\n            \r\n        // depends on business logic\r\n        domainOwners[domainHash] = address(0);\r\n    }\r\n    \r\n    function getPrice(bytes domain) public pure domainNameLenght(domain) returns (uint) {\r\n        if(domain.length >= 5 && domain.length < 10){\r\n            return 1 ether;\r\n        } else if(domain.length >= 10 && domain.length < 15){\r\n            return 0.8 ether;\r\n        } else {\r\n            return 0.5 ether;\r\n        }\r\n    }\r\n    \r\n    //the domain is bytes, because string is UTF-8 encoded and we cannot get its length\r\n    //the IP is bytes4 because it is more efficient in storing the sequence\r\n    function register(bytes domain, bytes4 ip) public payable isDomainFree(domain) isPriceMatch(domain) {\r\n        \r\n        bytes32 domainHash = keccak256(domain);\r\n        \r\n        registeredDomains[domainHash] = true;\r\n        domainOwners[domainHash] = msg.sender;\r\n        //ownerReceipts[msg.sender][domainHash].push(Receipt({domainName : domain, amountPaidWei : msg.value, timestamp: now, expires: now + 1 years}));\r\n        ownerReceipts[msg.sender][domainHash].push(Receipt({ amountPaidWei : msg.value, timestamp: now, expires: now + 1 years}));\r\n        domainIp[domainHash] = ip;\r\n        domainExpirationDate[domainHash] = now + 1 years;\r\n        \r\n        if(ownerReceipts[msg.sender][domainHash].length == 1) {\r\n            ownerAllDomains[msg.sender].push(Domain({domainName : domain}));\r\n        }\r\n        \r\n        //emit LogRegister(msg.sender, domainHash, now);\r\n        LogRegister(msg.sender, domainHash, now);\r\n    }\r\n    \r\n    \r\n    \r\n    function edit(bytes domain, bytes4 newIp) public isDomainExist(domain) isActive(domain) canEdit(domain) {\r\n        domainIp[keccak256(domain)] = newIp;\r\n    }\r\n    \r\n    function transferDomain(bytes domain, address newOwner) public isActive(domain) canEdit(domain) {\r\n        \r\n        bytes32 domainHash = keccak256(domain);\r\n        \r\n        domainOwners[domainHash] = newOwner;\r\n        \r\n        if(ownerReceipts[newOwner][domainHash].length < 1) {\r\n            ownerAllDomains[newOwner].push(Domain({domainName : domain}));\r\n        }\r\n        \r\n        // get index of last receipt\r\n        uint lastReceipt = ownerReceipts[msg.sender][domainHash].length;\r\n        \r\n        // assign domain to new owner and create receipt to describe transfer event paid amound should be 0 \r\n        //ownerReceipts[newOwner][domainHash].push(Receipt({domainName : domain, amountPaidWei : 0, timestamp: now, expires: ownerReceipts[msg.sender][domainHash][lastReceipt - 1].expires }));\r\n        ownerReceipts[newOwner][domainHash].push(Receipt({ amountPaidWei : 0, timestamp: now, expires: ownerReceipts[msg.sender][domainHash][lastReceipt - 1].expires }));\r\n        \r\n        //emit LogTransferDomain(newOwner, msg.sender, domainHash);\r\n        LogTransferDomain(newOwner, msg.sender, domainHash);\r\n    }\r\n    \r\n    function extendExpirationDate(bytes domain) public payable isActive(domain) canEdit(domain) isPriceMatch(domain) {\r\n        \r\n        bytes32 domainHash = keccak256(domain);\r\n        uint lastReceiptIndex = ownerReceipts[msg.sender][domainHash].length;\r\n        //ownerReceipts[msg.sender][domainHash].push(Receipt({domainName : domain, amountPaidWei : msg.value, timestamp: now, expires: ownerReceipts[msg.sender][domainHash][lastReceiptIndex - 1].expires + 1 years }));\r\n        ownerReceipts[msg.sender][domainHash].push(Receipt({ amountPaidWei : msg.value, timestamp: now, expires: ownerReceipts[msg.sender][domainHash][lastReceiptIndex - 1].expires + 1 years }));\r\n        \r\n        domainExpirationDate[domainHash] = ownerReceipts[msg.sender][domainHash][lastReceiptIndex].expires;\r\n        \r\n        //emit LogUpdateExipationDate(msg.sender, domainHash, ownerReceipts[msg.sender][domainHash][lastReceiptIndex].expires);\r\n        LogUpdateExipationDate(msg.sender, domainHash, ownerReceipts[msg.sender][domainHash][lastReceiptIndex].expires);\r\n    }\r\n    \r\n    function getOwnerReceiptByDomain(bytes domain) public view returns (uint[], uint[], uint[]) {\r\n        //uint amountPaidWei; \r\n        //uint timestamp; // created on \r\n        //uint expires;\r\n        \r\n        bytes32 domainHash = keccak256(domain);\r\n        \r\n        uint[] memory price = new uint[](ownerReceipts[msg.sender][domainHash].length);\r\n        uint[] memory createdOn = new uint[](ownerReceipts[msg.sender][domainHash].length);\r\n        uint[] memory expires = new uint[](ownerReceipts[msg.sender][domainHash].length);\r\n        \r\n        // ownerAllDomains[msg.sender].length - is number of receipts per domain\r\n        \r\n        for(uint i = 0; i < ownerReceipts[msg.sender][domainHash].length; i++){\r\n            price[i] = ownerReceipts[msg.sender][domainHash][i].amountPaidWei;\r\n            createdOn[i] = ownerReceipts[msg.sender][domainHash][i].timestamp;\r\n            expires[i] = ownerReceipts[msg.sender][domainHash][i].expires;\r\n        }\r\n        \r\n        return (price, createdOn, expires);\r\n    }\r\n    \r\n    function getIP(bytes domain) public view isDomainExist(domain) returns (bytes4) { // isActive(domain)\r\n        \r\n        return domainIp[keccak256(domain)];\r\n    }\r\n    \r\n    function getDomainOwner(bytes domain) public view returns (address) {\r\n        return domainOwners[keccak256(domain)];\r\n    }\r\n    \r\n    function getDomainCount() public view returns (uint) {\r\n        return ownerAllDomains[msg.sender].length;\r\n    }\r\n    \r\n    // get domain name by index \r\n    function getOwnerDomain(uint index) public view returns (bytes) {\r\n        return ownerAllDomains[msg.sender][index].domainName;\r\n    }\r\n    \r\n    function isDomainRegister(bytes domain) public view returns (bool) {\r\n        return registeredDomains[keccak256(domain)];\r\n    }\r\n    \r\n    function withdraw() public isOwner {\r\n        require(address(this).balance > 0);\r\n        owner.transfer(address(this).balance);\r\n    }\r\n}",
  "sourcePath": "C:\\Projects\\DDNS\\Contract\\contracts\\ddns.sol",
  "compiler": {
    "name": "solc",
    "version": "0.4.19+commit.c4cbbb05.Emscripten.clang"
  },
  "schemaVersion": "1.0.1",
  "updatedAt": "2018-03-29T05:13:23.965Z"
}